{
  "contractName": "Lottery",
  "abi": [
    {
      "inputs": [],
      "stateMutability": "nonpayable",
      "type": "constructor"
    },
    {
      "inputs": [
        {
          "internalType": "uint256",
          "name": "",
          "type": "uint256"
        }
      ],
      "name": "players",
      "outputs": [
        {
          "internalType": "address payable",
          "name": "",
          "type": "address"
        }
      ],
      "stateMutability": "view",
      "type": "function",
      "constant": true
    },
    {
      "inputs": [],
      "name": "winner",
      "outputs": [
        {
          "internalType": "address payable",
          "name": "",
          "type": "address"
        }
      ],
      "stateMutability": "view",
      "type": "function",
      "constant": true
    },
    {
      "stateMutability": "payable",
      "type": "receive",
      "payable": true
    },
    {
      "inputs": [],
      "name": "getBalance",
      "outputs": [
        {
          "internalType": "uint256",
          "name": "",
          "type": "uint256"
        }
      ],
      "stateMutability": "view",
      "type": "function",
      "constant": true
    },
    {
      "inputs": [],
      "name": "pickWinner",
      "outputs": [],
      "stateMutability": "nonpayable",
      "type": "function"
    },
    {
      "inputs": [],
      "name": "allPlayer",
      "outputs": [
        {
          "internalType": "address payable[]",
          "name": "",
          "type": "address[]"
        }
      ],
      "stateMutability": "view",
      "type": "function",
      "constant": true
    }
  ],
  "bytecode": "0x608060405234801561001057600080fd5b5033600160006101000a81548173ffffffffffffffffffffffffffffffffffffffff021916908373ffffffffffffffffffffffffffffffffffffffff160217905550610bdf806100616000396000f3fe60806040526004361061004e5760003560e01c806312065fe0146101075780635d495aea14610132578063aa295dce14610149578063dfbf53ae14610174578063f71d96cb1461019f57610102565b3661010257670de0b6b3a7640000341461009d576040517f08c379a0000000000000000000000000000000000000000000000000000000008152600401610094906107a1565b60405180910390fd5b6000339080600181540180825580915050600190039060005260206000200160009091909190916101000a81548173ffffffffffffffffffffffffffffffffffffffff021916908373ffffffffffffffffffffffffffffffffffffffff160217905550005b600080fd5b34801561011357600080fd5b5061011c6101dc565b60405161012991906107da565b60405180910390f35b34801561013e57600080fd5b50610147610274565b005b34801561015557600080fd5b5061015e6104ba565b60405161016b91906108e5565b60405180910390f35b34801561018057600080fd5b506101896105d8565b6040516101969190610916565b60405180910390f35b3480156101ab57600080fd5b506101c660048036038101906101c19190610962565b6105fe565b6040516101d39190610916565b60405180910390f35b6000600160009054906101000a900473ffffffffffffffffffffffffffffffffffffffff1673ffffffffffffffffffffffffffffffffffffffff163373ffffffffffffffffffffffffffffffffffffffff161461026e576040517f08c379a000000000000000000000000000000000000000000000000000000000815260040161026590610a01565b60405180910390fd5b47905090565b600160009054906101000a900473ffffffffffffffffffffffffffffffffffffffff1673ffffffffffffffffffffffffffffffffffffffff163373ffffffffffffffffffffffffffffffffffffffff1614610304576040517f08c379a00000000000000000000000000000000000000000000000000000000081526004016102fb90610a01565b60405180910390fd5b6003600080549050101561034d576040517f08c379a000000000000000000000000000000000000000000000000000000000815260040161034490610a6d565b60405180910390fd5b6000808054905061035c61063d565b6103669190610abc565b90506000818154811061037c5761037b610aed565b5b9060005260206000200160009054906101000a900473ffffffffffffffffffffffffffffffffffffffff16600260006101000a81548173ffffffffffffffffffffffffffffffffffffffff021916908373ffffffffffffffffffffffffffffffffffffffff160217905550600260009054906101000a900473ffffffffffffffffffffffffffffffffffffffff1673ffffffffffffffffffffffffffffffffffffffff166108fc61042b6101dc565b9081150290604051600060405180830381858888f19350505050158015610456573d6000803e3d6000fd5b50600067ffffffffffffffff81111561047257610471610b1c565b5b6040519080825280602002602001820160405280156104a05781602001602082028036833780820191505090505b50600090805190602001906104b6929190610677565b5050565b6060600160009054906101000a900473ffffffffffffffffffffffffffffffffffffffff1673ffffffffffffffffffffffffffffffffffffffff163373ffffffffffffffffffffffffffffffffffffffff161461054c576040517f08c379a000000000000000000000000000000000000000000000000000000000815260040161054390610a01565b60405180910390fd5b60008054806020026020016040519081016040528092919081815260200182805480156105ce57602002820191906000526020600020905b8160009054906101000a900473ffffffffffffffffffffffffffffffffffffffff1673ffffffffffffffffffffffffffffffffffffffff1681526020019060010190808311610584575b5050505050905090565b600260009054906101000a900473ffffffffffffffffffffffffffffffffffffffff1681565b6000818154811061060e57600080fd5b906000526020600020016000915054906101000a900473ffffffffffffffffffffffffffffffffffffffff1681565b6000444260008054905060405160200161065993929190610b6c565b6040516020818303038152906040528051906020012060001c905090565b8280548282559060005260206000209081019282156106f0579160200282015b828111156106ef5782518260006101000a81548173ffffffffffffffffffffffffffffffffffffffff021916908373ffffffffffffffffffffffffffffffffffffffff16021790555091602001919060010190610697565b5b5090506106fd9190610701565b5090565b5b8082111561071a576000816000905550600101610702565b5090565b600082825260208201905092915050565b7f466f72207061727469636970616e7420696e207468652067616d652c20506c6560008201527f617365207061792061746c6561737420312065746865722e0000000000000000602082015250565b600061078b60388361071e565b91506107968261072f565b604082019050919050565b600060208201905081810360008301526107ba8161077e565b9050919050565b6000819050919050565b6107d4816107c1565b82525050565b60006020820190506107ef60008301846107cb565b92915050565b600081519050919050565b600082825260208201905092915050565b6000819050602082019050919050565b600073ffffffffffffffffffffffffffffffffffffffff82169050919050565b600061084c82610821565b9050919050565b61085c81610841565b82525050565b600061086e8383610853565b60208301905092915050565b6000602082019050919050565b6000610892826107f5565b61089c8185610800565b93506108a783610811565b8060005b838110156108d85781516108bf8882610862565b97506108ca8361087a565b9250506001810190506108ab565b5085935050505092915050565b600060208201905081810360008301526108ff8184610887565b905092915050565b61091081610841565b82525050565b600060208201905061092b6000830184610907565b92915050565b600080fd5b61093f816107c1565b811461094a57600080fd5b50565b60008135905061095c81610936565b92915050565b60006020828403121561097857610977610931565b5b60006109868482850161094d565b91505092915050565b7f4f6e6c79206d616e616765722063616e2061636365737320746869732066756e60008201527f6374696f6e616c6974792e000000000000000000000000000000000000000000602082015250565b60006109eb602b8361071e565b91506109f68261098f565b604082019050919050565b60006020820190508181036000830152610a1a816109de565b9050919050565b7f506c617965727320617265206c657373207468616e2074687265652e00000000600082015250565b6000610a57601c8361071e565b9150610a6282610a21565b602082019050919050565b60006020820190508181036000830152610a8681610a4a565b9050919050565b7f4e487b7100000000000000000000000000000000000000000000000000000000600052601260045260246000fd5b6000610ac7826107c1565b9150610ad2836107c1565b925082610ae257610ae1610a8d565b5b828206905092915050565b7f4e487b7100000000000000000000000000000000000000000000000000000000600052603260045260246000fd5b7f4e487b7100000000000000000000000000000000000000000000000000000000600052604160045260246000fd5b6000819050919050565b610b66610b61826107c1565b610b4b565b82525050565b6000610b788286610b55565b602082019150610b888285610b55565b602082019150610b988284610b55565b60208201915081905094935050505056fea26469706673582212204c4eca893b8882d20f495593e3723a727d0cf61e51f3815dd025b5de86e0142a64736f6c634300080b0033",
  "immutableReferences": {},
  "source": "//SPDX-License-Identifier: GPL-3.0\r\n\r\npragma solidity >=0.5.0 <0.9.0;\r\n\r\n// For this contract we receive 1 ether from each participant and we do random pick winner and who wins this game take all ehter home.\r\n// We require atlest 3 players to play this game\r\n// Manager cannot swith his responsiblity to other person\r\n// Manager can also take participant in this game as player\r\ncontract Lottery {\r\n    // Players is able to pay and receive ether in this contract, players is payable in nature so we sotre address of all players\r\n    address payable[] public players;\r\n    \r\n    // Only one manager allow in this contract\r\n    address manager;\r\n\r\n    // We need to store winner to send ehter as winning prize.\r\n    address payable public winner;\r\n\r\n    // Who deploy this contract is become manager for this game.\r\n    constructor() {\r\n        manager=msg.sender;\r\n    }\r\n\r\n    // Players can participant to transfer 1 ether to the contract\r\n    receive() external payable {\r\n        require(msg.value == 1 ether, \"For participant in the game, Please pay atleast 1 ether.\");\r\n        players.push(payable(msg.sender));\r\n    }\r\n\r\n    // This function return current balance in smart contract, only manager can access this function.\r\n    function getBalance() public view returns(uint) {\r\n        require(msg.sender == manager, \"Only manager can access this functionality.\");\r\n        return address(this).balance;\r\n    }\r\n\r\n    function random() internal view returns(uint){\r\n        return uint(keccak256(abi.encodePacked(block.difficulty, block.timestamp, players.length)));\r\n    }\r\n\r\n    // In this function we choose winnder with help of random function and transfer winning prize to winner account\r\n    function pickWinner() public {\r\n        require(msg.sender == manager, \"Only manager can access this functionality.\");\r\n        require(players.length >= 3, \"Players are less than three.\");\r\n\r\n        uint index = random() % players.length;\r\n        winner = players[index];\r\n        winner.transfer(getBalance());\r\n\r\n        players = new address payable[](0);\r\n    }\r\n\r\n    // List all current player who participant in this game\r\n    function allPlayer() public view returns(address payable[] memory) {\r\n         require(msg.sender == manager, \"Only manager can access this functionality.\");\r\n         return players;\r\n    }\r\n}",
  "sourcePath": "G:\\freelancer\\solidity\\LotteryDapp\\contracts\\Lottery.sol",
  "compiler": {
    "name": "solc",
    "version": "0.8.11+commit.d7f03943.Emscripten.clang"
  },
  "schemaVersion": "3.4.9",
  "updatedAt": "2022-09-13T08:34:45.257Z",
  "networkType": "ethereum",
  "devdoc": {
    "kind": "dev",
    "methods": {},
    "version": 1
  },
  "userdoc": {
    "kind": "user",
    "methods": {},
    "version": 1
  }
}